:020000040800F2
:10000000003000204D0200089D0200089D020008FB
:100010009D0200089D0200089D02000800000000EB
:100020000000000000000000000000009D02000829
:100030009D020008000000009D0200089D020008CB
:100040009D0200089D0200089D0200089D02000814
:100050009D0200089D0200083F0200089D02000862
:100060009D0200089D0200089D0200089D020008F4
:100070009D0200089D0200089D0200089D020008E4
:100080009D0200089D0200089D0200089D020008D4
:100090009D0200089D0200089D0200089D020008C4
:1000A0009D0200089D0200089D0200089D020008B4
:1000B0009D0200089D020008000000009D0200084B
:1000C0009D02000800000000000000009D020008E2
:1000D000000000009D0200089D0200089D0200082B
:1000E0009D0200089D0200080000000000000000C2
:1000F0000000000000000000000000000000000000
:1001000000000000000000000000000000000000EF
:1001100000000000000000009D0200089D02000891
:1001200000000000000000000000000000000000CF
:1001300000000000000000000000000000000000BF
:1001400000000000000000000000000000000000AF
:10015000000000000000000000000000000000009F
:10016000000000000000000000000000000000008F
:10017000000000000000000000000000000000007F
:10018000000000000000000000000000000000006F
:10019000000000000000000000000000000000005F
:1001A000000000000000000000000000000000004F
:1001B000000000000000000000000000000000003F
:1001C000000000000000000000000000000000002F
:1001D0000000000000000000000000009D02000878
:1001E0009D0200089D0200089D0200089D02000873
:0801F0009D0200089D020008B9
:1001F80010B5054C237833B9044B13B10448AFF359
:1002080000800123237010BD0000002000000000C2
:100218002803000808B5034B1BB103490348AFF393
:10022800008008BD0000000004000020280300082A
:1002380080B400AFFEE780B500AF002000F02CF8D6
:1002480000BF80BD0D488546AFF300800C480D49BE
:100258000D4A002302E0D458C4500433C4188C4219
:10026800F9D30A4A0A4C002301E013600432A2427F
:10027800FBD300F031F8FFF7DBFFFEE7003000208A
:1002880000000020000000204803000800000020B3
:100298001C000020FEE7000080B483B000AF0346D6
:1002A800FB710C4B5B69FA79012101FA02F21340E8
:1002B800002B09D0074B5B69FA79012101FA02F298
:1002C8001146044A0B43536100BF0C37BD465DF825
:1002D800047B70470004014070B50D4D0D4C641B44
:1002E800A4100026A64209D10B4D0C4C00F018F8BA
:1002F800641BA4100026A64205D170BD55F8043B26
:1003080098470136EEE755F8043B98470136F2E77F
:1003180040030008400300084003000844030008A5
:10032800F8B500BFF8BC08BC9E467047F8B500BFDA
:08033800F8BC08BC9E467047AA
:040340001D02000892
:04034400F9010008B3
:040000050800024DA0
:00000001FF
